:040000008C09000067
:040001008C0A000461
:040002008C0B000C57
:040003008C0C001051
:040004008C0D000857
:04000500012A402765
:04000600018B6020EA
:04000700118D000156
:040008001000FFFDE8
:04000900012A402662
:04000A001000FFFFE4
:04000B0000000000F1
:04000C0000000000F0
:04000D0000000000EF
:04000E0000000000EE
:04000F0000000000ED
:0400100000000000EC
:0400110000000000EB
:0400120000000000EA
:0400130000000000E9
:0400140000000000E8
:0400150000000000E7
:0400160000000000E6
:0400170000000000E5
:0400180000000000E4
:0400190000000000E3
:04001A0000000000E2
:04001B0000000000E1
:04001C0000000000E0
:04001D0000000000DF
:04001E0000000000DE
:04001F0000000000DD
:0400200000000000DC
:0400210000000000DB
:0400220000000000DA
:0400230000000000D9
:0400240000000000D8
:0400250000000000D7
:0400260000000000D6
:0400270000000000D5
:0400280000000000D4
:00000001FF
